{
  "_format": "hh-sol-artifact-1",
  "contractName": "Marketplace",
  "sourceName": "contracts/MarketplaceContract.sol",
  "abi": [
    {
      "inputs": [],
      "stateMutability": "nonpayable",
      "type": "constructor"
    },
    {
      "anonymous": false,
      "inputs": [
        {
          "indexed": true,
          "internalType": "address",
          "name": "owner",
          "type": "address"
        },
        {
          "indexed": true,
          "internalType": "address",
          "name": "spender",
          "type": "address"
        },
        {
          "indexed": false,
          "internalType": "uint256",
          "name": "value",
          "type": "uint256"
        }
      ],
      "name": "Approval",
      "type": "event"
    },
    {
      "anonymous": false,
      "inputs": [
        {
          "indexed": true,
          "internalType": "address",
          "name": "buyer",
          "type": "address"
        },
        {
          "indexed": false,
          "internalType": "uint256",
          "name": "productId",
          "type": "uint256"
        },
        {
          "indexed": false,
          "internalType": "uint256",
          "name": "price",
          "type": "uint256"
        }
      ],
      "name": "ProductPurchased",
      "type": "event"
    },
    {
      "anonymous": false,
      "inputs": [
        {
          "indexed": true,
          "internalType": "address",
          "name": "from",
          "type": "address"
        },
        {
          "indexed": true,
          "internalType": "address",
          "name": "to",
          "type": "address"
        },
        {
          "indexed": false,
          "internalType": "uint256",
          "name": "value",
          "type": "uint256"
        }
      ],
      "name": "Transfer",
      "type": "event"
    },
    {
      "inputs": [],
      "name": "addFunds",
      "outputs": [],
      "stateMutability": "payable",
      "type": "function"
    },
    {
      "inputs": [
        {
          "internalType": "string",
          "name": "name",
          "type": "string"
        },
        {
          "internalType": "uint256",
          "name": "price",
          "type": "uint256"
        }
      ],
      "name": "addProduct",
      "outputs": [],
      "stateMutability": "nonpayable",
      "type": "function"
    },
    {
      "inputs": [
        {
          "internalType": "address",
          "name": "owner",
          "type": "address"
        },
        {
          "internalType": "address",
          "name": "spender",
          "type": "address"
        }
      ],
      "name": "allowance",
      "outputs": [
        {
          "internalType": "uint256",
          "name": "",
          "type": "uint256"
        }
      ],
      "stateMutability": "view",
      "type": "function"
    },
    {
      "inputs": [
        {
          "internalType": "address",
          "name": "spender",
          "type": "address"
        },
        {
          "internalType": "uint256",
          "name": "amount",
          "type": "uint256"
        }
      ],
      "name": "approve",
      "outputs": [
        {
          "internalType": "bool",
          "name": "",
          "type": "bool"
        }
      ],
      "stateMutability": "nonpayable",
      "type": "function"
    },
    {
      "inputs": [
        {
          "internalType": "address",
          "name": "account",
          "type": "address"
        }
      ],
      "name": "balanceOf",
      "outputs": [
        {
          "internalType": "uint256",
          "name": "",
          "type": "uint256"
        }
      ],
      "stateMutability": "view",
      "type": "function"
    },
    {
      "inputs": [
        {
          "internalType": "address",
          "name": "",
          "type": "address"
        }
      ],
      "name": "balances",
      "outputs": [
        {
          "internalType": "uint256",
          "name": "",
          "type": "uint256"
        }
      ],
      "stateMutability": "view",
      "type": "function"
    },
    {
      "inputs": [],
      "name": "decimals",
      "outputs": [
        {
          "internalType": "uint8",
          "name": "",
          "type": "uint8"
        }
      ],
      "stateMutability": "view",
      "type": "function"
    },
    {
      "inputs": [
        {
          "internalType": "address",
          "name": "spender",
          "type": "address"
        },
        {
          "internalType": "uint256",
          "name": "subtractedValue",
          "type": "uint256"
        }
      ],
      "name": "decreaseAllowance",
      "outputs": [
        {
          "internalType": "bool",
          "name": "",
          "type": "bool"
        }
      ],
      "stateMutability": "nonpayable",
      "type": "function"
    },
    {
      "inputs": [
        {
          "internalType": "uint256",
          "name": "productId",
          "type": "uint256"
        }
      ],
      "name": "deleteProduct",
      "outputs": [],
      "stateMutability": "nonpayable",
      "type": "function"
    },
    {
      "inputs": [],
      "name": "difficulty",
      "outputs": [
        {
          "internalType": "uint256",
          "name": "",
          "type": "uint256"
        }
      ],
      "stateMutability": "view",
      "type": "function"
    },
    {
      "inputs": [
        {
          "internalType": "address",
          "name": "spender",
          "type": "address"
        },
        {
          "internalType": "uint256",
          "name": "addedValue",
          "type": "uint256"
        }
      ],
      "name": "increaseAllowance",
      "outputs": [
        {
          "internalType": "bool",
          "name": "",
          "type": "bool"
        }
      ],
      "stateMutability": "nonpayable",
      "type": "function"
    },
    {
      "inputs": [],
      "name": "listAllProducts",
      "outputs": [
        {
          "components": [
            {
              "internalType": "uint256",
              "name": "id",
              "type": "uint256"
            },
            {
              "internalType": "string",
              "name": "name",
              "type": "string"
            },
            {
              "internalType": "uint256",
              "name": "price",
              "type": "uint256"
            },
            {
              "internalType": "bool",
              "name": "exists",
              "type": "bool"
            }
          ],
          "internalType": "struct Marketplace.Product[]",
          "name": "",
          "type": "tuple[]"
        }
      ],
      "stateMutability": "view",
      "type": "function"
    },
    {
      "inputs": [
        {
          "internalType": "uint256",
          "name": "nonce",
          "type": "uint256"
        },
        {
          "internalType": "bytes32",
          "name": "currentChallenge",
          "type": "bytes32"
        }
      ],
      "name": "mine",
      "outputs": [
        {
          "internalType": "bytes8",
          "name": "",
          "type": "bytes8"
        }
      ],
      "stateMutability": "pure",
      "type": "function"
    },
    {
      "inputs": [],
      "name": "name",
      "outputs": [
        {
          "internalType": "string",
          "name": "",
          "type": "string"
        }
      ],
      "stateMutability": "view",
      "type": "function"
    },
    {
      "inputs": [],
      "name": "owner",
      "outputs": [
        {
          "internalType": "address",
          "name": "",
          "type": "address"
        }
      ],
      "stateMutability": "view",
      "type": "function"
    },
    {
      "inputs": [],
      "name": "productCount",
      "outputs": [
        {
          "internalType": "uint256",
          "name": "",
          "type": "uint256"
        }
      ],
      "stateMutability": "view",
      "type": "function"
    },
    {
      "inputs": [
        {
          "internalType": "uint256",
          "name": "",
          "type": "uint256"
        }
      ],
      "name": "products",
      "outputs": [
        {
          "internalType": "uint256",
          "name": "id",
          "type": "uint256"
        },
        {
          "internalType": "string",
          "name": "name",
          "type": "string"
        },
        {
          "internalType": "uint256",
          "name": "price",
          "type": "uint256"
        },
        {
          "internalType": "bool",
          "name": "exists",
          "type": "bool"
        }
      ],
      "stateMutability": "view",
      "type": "function"
    },
    {
      "inputs": [
        {
          "internalType": "uint256",
          "name": "productId",
          "type": "uint256"
        }
      ],
      "name": "purchaseProduct",
      "outputs": [],
      "stateMutability": "nonpayable",
      "type": "function"
    },
    {
      "inputs": [],
      "name": "symbol",
      "outputs": [
        {
          "internalType": "string",
          "name": "",
          "type": "string"
        }
      ],
      "stateMutability": "view",
      "type": "function"
    },
    {
      "inputs": [],
      "name": "totalSupply",
      "outputs": [
        {
          "internalType": "uint256",
          "name": "",
          "type": "uint256"
        }
      ],
      "stateMutability": "view",
      "type": "function"
    },
    {
      "inputs": [
        {
          "internalType": "address",
          "name": "to",
          "type": "address"
        },
        {
          "internalType": "uint256",
          "name": "amount",
          "type": "uint256"
        }
      ],
      "name": "transfer",
      "outputs": [
        {
          "internalType": "bool",
          "name": "",
          "type": "bool"
        }
      ],
      "stateMutability": "nonpayable",
      "type": "function"
    },
    {
      "inputs": [
        {
          "internalType": "address",
          "name": "from",
          "type": "address"
        },
        {
          "internalType": "address",
          "name": "to",
          "type": "address"
        },
        {
          "internalType": "uint256",
          "name": "amount",
          "type": "uint256"
        }
      ],
      "name": "transferFrom",
      "outputs": [
        {
          "internalType": "bool",
          "name": "",
          "type": "bool"
        }
      ],
      "stateMutability": "nonpayable",
      "type": "function"
    },
    {
      "inputs": [
        {
          "internalType": "uint256",
          "name": "productId",
          "type": "uint256"
        },
        {
          "internalType": "string",
          "name": "newName",
          "type": "string"
        },
        {
          "internalType": "uint256",
          "name": "newPrice",
          "type": "uint256"
        }
      ],
      "name": "updateProduct",
      "outputs": [],
      "stateMutability": "nonpayable",
      "type": "function"
    },
    {
      "inputs": [
        {
          "internalType": "uint256",
          "name": "amount",
          "type": "uint256"
        }
      ],
      "name": "withdrawFunds",
      "outputs": [],
      "stateMutability": "nonpayable",
      "type": "function"
    }
  ],
  "bytecode": "0x60806040526d04ee2d6d415b85acef81000000006005553480156200002357600080fd5b506040518060400160405280601081526020016f26b0b935b2ba383630b1b2aa37b5b2b760811b8152506040518060400160405280600381526020016213541560ea1b81525081600390816200007a919062000248565b50600462000089828262000248565b5050600680546001600160a01b03191633908117909155620000d19150620000af601290565b620000bc90600a62000429565b620000cb90620f424062000441565b620000d7565b62000471565b6001600160a01b038216620001325760405162461bcd60e51b815260206004820152601f60248201527f45524332303a206d696e7420746f20746865207a65726f206164647265737300604482015260640160405180910390fd5b80600260008282546200014691906200045b565b90915550506001600160a01b038216600081815260208181526040808320805486019055518481527fddf252ad1be2c89b69c2b068fc378daa952ba7f163c4a11628f55a4df523b3ef910160405180910390a35050565b505050565b634e487b7160e01b600052604160045260246000fd5b600181811c90821680620001cd57607f821691505b602082108103620001ee57634e487b7160e01b600052602260045260246000fd5b50919050565b601f8211156200019d576000816000526020600020601f850160051c810160208610156200021f5750805b601f850160051c820191505b8181101562000240578281556001016200022b565b505050505050565b81516001600160401b03811115620002645762000264620001a2565b6200027c81620002758454620001b8565b84620001f4565b602080601f831160018114620002b457600084156200029b5750858301515b600019600386901b1c1916600185901b17855562000240565b600085815260208120601f198616915b82811015620002e557888601518255948401946001909101908401620002c4565b5085821015620003045787850151600019600388901b60f8161c191681555b5050505050600190811b01905550565b634e487b7160e01b600052601160045260246000fd5b600181815b808511156200036b5781600019048211156200034f576200034f62000314565b808516156200035d57918102915b93841c93908002906200032f565b509250929050565b600082620003845750600162000423565b81620003935750600062000423565b8160018114620003ac5760028114620003b757620003d7565b600191505062000423565b60ff841115620003cb57620003cb62000314565b50506001821b62000423565b5060208310610133831016604e8410600b8410161715620003fc575081810a62000423565b6200040883836200032a565b80600019048211156200041f576200041f62000314565b0290505b92915050565b60006200043a60ff84168362000373565b9392505050565b808202811582820484141762000423576200042362000314565b8082018082111562000423576200042362000314565b61176580620004816000396000f3fe60806040526004361061014b5760003560e01c806370a08231116100b6578063a9059cbb1161006f578063a9059cbb146103c8578063b15247d9146103e8578063dd62ed3e14610408578063e0f6ef8714610428578063e43e322c1461043e578063ed90c7b71461047757600080fd5b806370a08231146102ed5780637acc0b20146103235780638da5cb5b1461035357806395d89b411461038b578063a26759cb146103a0578063a457c2d7146103a857600080fd5b806327e235e31161010857806327e235e314610222578063313ce5671461024f57806338b43d931461026b57806338e76a031461028d57806339509351146102ad57806353488deb146102cd57600080fd5b806306fdde0314610150578063095ea7b31461017b578063155dd5ee146101ab57806318160ddd146101cd57806319cae462146101ec57806323b872dd14610202575b600080fd5b34801561015c57600080fd5b50610165610497565b60405161017291906111b9565b60405180910390f35b34801561018757600080fd5b5061019b6101963660046111ef565b610529565b6040519015158152602001610172565b3480156101b757600080fd5b506101cb6101c6366004611219565b610543565b005b3480156101d957600080fd5b506002545b604051908152602001610172565b3480156101f857600080fd5b506101de60055481565b34801561020e57600080fd5b5061019b61021d366004611232565b6105f1565b34801561022e57600080fd5b506101de61023d36600461126e565b60076020526000908152604090205481565b34801561025b57600080fd5b5060405160128152602001610172565b34801561027757600080fd5b50610280610615565b6040516101729190611289565b34801561029957600080fd5b506101cb6102a8366004611219565b6107b5565b3480156102b957600080fd5b5061019b6102c83660046111ef565b6108f6565b3480156102d957600080fd5b506101cb6102e83660046113bb565b610918565b3480156102f957600080fd5b506101de61030836600461126e565b6001600160a01b031660009081526020819052604090205490565b34801561032f57600080fd5b5061034361033e366004611219565b6109a8565b604051610172949392919061140b565b34801561035f57600080fd5b50600654610373906001600160a01b031681565b6040516001600160a01b039091168152602001610172565b34801561039757600080fd5b50610165610a5d565b6101cb610a6c565b3480156103b457600080fd5b5061019b6103c33660046111ef565b610a92565b3480156103d457600080fd5b5061019b6103e33660046111ef565b610b0d565b3480156103f457600080fd5b506101cb61040336600461143c565b610b1b565b34801561041457600080fd5b506101de610423366004611481565b610bcf565b34801561043457600080fd5b506101de60095481565b34801561044a57600080fd5b5061045e6104593660046114b4565b610bfa565b6040516001600160c01b03199091168152602001610172565b34801561048357600080fd5b506101cb610492366004611219565b610c7d565b6060600380546104a6906114d6565b80601f01602080910402602001604051908101604052809291908181526020018280546104d2906114d6565b801561051f5780601f106104f45761010080835404028352916020019161051f565b820191906000526020600020905b81548152906001019060200180831161050257829003601f168201915b5050505050905090565b600033610537818585610d0d565b60019150505b92915050565b3360009081526007602052604090205481111561059c5760405162461bcd60e51b8152602060048201526012602482015271496e73756666696369656e742066756e647360701b60448201526064015b60405180910390fd5b33600090815260076020526040812080548392906105bb908490611520565b9091555050604051339082156108fc029083906000818181858888f193505050501580156105ed573d6000803e3d6000fd5b5050565b6000336105ff858285610e31565b61060a858585610eab565b506001949350505050565b6060600060095467ffffffffffffffff81111561063457610634611318565b60405190808252806020026020018201604052801561069257816020015b61067f60405180608001604052806000815260200160608152602001600081526020016000151581525090565b8152602001906001900390816106525790505b50905060015b60095481116107af5760086000828152602001908152602001600020604051806080016040529081600082015481526020016001820180546106d9906114d6565b80601f0160208091040260200160405190810160405280929190818152602001828054610705906114d6565b80156107525780601f1061072757610100808354040283529160200191610752565b820191906000526020600020905b81548152906001019060200180831161073557829003601f168201915b50505091835250506002820154602082015260039091015460ff16151560409091015282610781600184611520565b8151811061079157610791611533565b602002602001018190525080806107a790611549565b915050610698565b50919050565b6000818152600860205260409020600381015460ff166107e75760405162461bcd60e51b815260040161059390611562565b600281015433600090815260076020526040902054101561083f5760405162461bcd60e51b8152602060048201526012602482015271496e73756666696369656e742066756e647360701b6044820152606401610593565b60028101543360009081526007602052604081208054909190610863908490611520565b909155505060028101546006546001600160a01b031660009081526007602052604081208054909190610897908490611592565b925050819055506108ac33826002015461104f565b600281015460405133917f228a5d93a19503d5154326b1b21603e2cdd97bda22fc58196235b4490659fc01916108ea91868252602082015260400190565b60405180910390a25050565b6000336105378185856109098383610bcf565b6109139190611592565b610d0d565b6006546001600160a01b031633146109425760405162461bcd60e51b8152600401610593906115a5565b60008381526008602052604090206003015460ff166109735760405162461bcd60e51b815260040161059390611562565b600083815260086020526040902060010161098e838261163a565b506000928352600860205260409092206002019190915550565b600860205260009081526040902080546001820180549192916109ca906114d6565b80601f01602080910402602001604051908101604052809291908181526020018280546109f6906114d6565b8015610a435780601f10610a1857610100808354040283529160200191610a43565b820191906000526020600020905b815481529060010190602001808311610a2657829003601f168201915b50505050600283015460039093015491929160ff16905084565b6060600480546104a6906114d6565b3360009081526007602052604081208054349290610a8b908490611592565b9091555050565b60003381610aa08286610bcf565b905083811015610b005760405162461bcd60e51b815260206004820152602560248201527f45524332303a2064656372656173656420616c6c6f77616e63652062656c6f77604482015264207a65726f60d81b6064820152608401610593565b61060a8286868403610d0d565b600033610537818585610eab565b6006546001600160a01b03163314610b455760405162461bcd60e51b8152600401610593906115a5565b60098054906000610b5583611549565b9091555050604080516080810182526009548082526020808301868152838501869052600160608501819052600093845260089092529390912082518155925191929190820190610ba6908261163a565b50604082015160028201556060909101516003909101805460ff19169115159190911790555050565b6001600160a01b03918216600090815260016020908152604080832093909416825291909152205490565b60008060028484604051602001610c1b929190918252602082015260400190565b60408051601f1981840301815290829052610c35916116fa565b602060405180830381855afa158015610c52573d6000803e3d6000fd5b5050506040513d601f19601f82011682018060405250810190610c759190611716565b949350505050565b6006546001600160a01b03163314610ca75760405162461bcd60e51b8152600401610593906115a5565b60008181526008602052604090206003015460ff16610cd85760405162461bcd60e51b815260040161059390611562565b600081815260086020526040812081815590610cf76001830182611113565b5060006002820155600301805460ff1916905550565b6001600160a01b038316610d6f5760405162461bcd60e51b8152602060048201526024808201527f45524332303a20617070726f76652066726f6d20746865207a65726f206164646044820152637265737360e01b6064820152608401610593565b6001600160a01b038216610dd05760405162461bcd60e51b815260206004820152602260248201527f45524332303a20617070726f766520746f20746865207a65726f206164647265604482015261737360f01b6064820152608401610593565b6001600160a01b0383811660008181526001602090815260408083209487168084529482529182902085905590518481527f8c5be1e5ebec7d5bd14f71427d1e84f3dd0314c0f7b2291e5b200ac8c7c3b925910160405180910390a3505050565b6000610e3d8484610bcf565b90506000198114610ea55781811015610e985760405162461bcd60e51b815260206004820152601d60248201527f45524332303a20696e73756666696369656e7420616c6c6f77616e63650000006044820152606401610593565b610ea58484848403610d0d565b50505050565b6001600160a01b038316610f0f5760405162461bcd60e51b815260206004820152602560248201527f45524332303a207472616e736665722066726f6d20746865207a65726f206164604482015264647265737360d81b6064820152608401610593565b6001600160a01b038216610f715760405162461bcd60e51b815260206004820152602360248201527f45524332303a207472616e7366657220746f20746865207a65726f206164647260448201526265737360e81b6064820152608401610593565b6001600160a01b03831660009081526020819052604090205481811015610fe95760405162461bcd60e51b815260206004820152602660248201527f45524332303a207472616e7366657220616d6f756e7420657863656564732062604482015265616c616e636560d01b6064820152608401610593565b6001600160a01b03848116600081815260208181526040808320878703905593871680835291849020805487019055925185815290927fddf252ad1be2c89b69c2b068fc378daa952ba7f163c4a11628f55a4df523b3ef910160405180910390a3610ea5565b6001600160a01b0382166110a55760405162461bcd60e51b815260206004820152601f60248201527f45524332303a206d696e7420746f20746865207a65726f2061646472657373006044820152606401610593565b80600260008282546110b79190611592565b90915550506001600160a01b038216600081815260208181526040808320805486019055518481527fddf252ad1be2c89b69c2b068fc378daa952ba7f163c4a11628f55a4df523b3ef910160405180910390a35050565b505050565b50805461111f906114d6565b6000825580601f1061112f575050565b601f01602090049060005260206000209081019061114d9190611150565b50565b5b808211156111655760008155600101611151565b5090565b60005b8381101561118457818101518382015260200161116c565b50506000910152565b600081518084526111a5816020860160208601611169565b601f01601f19169290920160200192915050565b6020815260006111cc602083018461118d565b9392505050565b80356001600160a01b03811681146111ea57600080fd5b919050565b6000806040838503121561120257600080fd5b61120b836111d3565b946020939093013593505050565b60006020828403121561122b57600080fd5b5035919050565b60008060006060848603121561124757600080fd5b611250846111d3565b925061125e602085016111d3565b9150604084013590509250925092565b60006020828403121561128057600080fd5b6111cc826111d3565b600060208083018184528085518083526040925060408601915060408160051b87010184880160005b8381101561130a57603f19898403018552815160808151855288820151818a8701526112e08287018261118d565b838a0151878b015260609384015115159390960192909252505093860193908601906001016112b2565b509098975050505050505050565b634e487b7160e01b600052604160045260246000fd5b600082601f83011261133f57600080fd5b813567ffffffffffffffff8082111561135a5761135a611318565b604051601f8301601f19908116603f0116810190828211818310171561138257611382611318565b8160405283815286602085880101111561139b57600080fd5b836020870160208301376000602085830101528094505050505092915050565b6000806000606084860312156113d057600080fd5b83359250602084013567ffffffffffffffff8111156113ee57600080fd5b6113fa8682870161132e565b925050604084013590509250925092565b848152608060208201526000611424608083018661118d565b60408301949094525090151560609091015292915050565b6000806040838503121561144f57600080fd5b823567ffffffffffffffff81111561146657600080fd5b6114728582860161132e565b95602094909401359450505050565b6000806040838503121561149457600080fd5b61149d836111d3565b91506114ab602084016111d3565b90509250929050565b600080604083850312156114c757600080fd5b50508035926020909101359150565b600181811c908216806114ea57607f821691505b6020821081036107af57634e487b7160e01b600052602260045260246000fd5b634e487b7160e01b600052601160045260246000fd5b8181038181111561053d5761053d61150a565b634e487b7160e01b600052603260045260246000fd5b60006001820161155b5761155b61150a565b5060010190565b602080825260169082015275141c9bd91d58dd08191bd95cc81b9bdd08195e1a5cdd60521b604082015260600190565b8082018082111561053d5761053d61150a565b60208082526025908201527f4f6e6c7920746865206f776e65722063616e2063616c6c20746869732066756e60408201526431ba34b7b760d91b606082015260800190565b601f82111561110e576000816000526020600020601f850160051c810160208610156116135750805b601f850160051c820191505b818110156116325782815560010161161f565b505050505050565b815167ffffffffffffffff81111561165457611654611318565b6116688161166284546114d6565b846115ea565b602080601f83116001811461169d57600084156116855750858301515b600019600386901b1c1916600185901b178555611632565b600085815260208120601f198616915b828110156116cc578886015182559484019460019091019084016116ad565b50858210156116ea5787850151600019600388901b60f8161c191681555b5050505050600190811b01905550565b6000825161170c818460208701611169565b9190910192915050565b60006020828403121561172857600080fd5b505191905056fea2646970667358221220ede57972a0ce6a0ea121f56cc5a772975ff39a3b0a7cc6008edd57ee2f5bcd3264736f6c63430008180033",
  "linkReferences": {},
  "deployedLinkReferences": {}
}