{
  "_format": "hh-sol-artifact-1",
  "contractName": "ProofOfWork",
  "sourceName": "contracts/ProofOfWork.sol",
  "abi": [
    {
      "inputs": [],
      "name": "difficulty",
      "outputs": [
        {
          "internalType": "uint256",
          "name": "",
          "type": "uint256"
        }
      ],
      "stateMutability": "view",
      "type": "function"
    },
    {
      "inputs": [
        {
          "internalType": "uint256",
          "name": "nonce",
          "type": "uint256"
        },
        {
          "internalType": "bytes32",
          "name": "currentChallenge",
          "type": "bytes32"
        }
      ],
      "name": "mine",
      "outputs": [
        {
          "internalType": "bytes8",
          "name": "",
          "type": "bytes8"
        }
      ],
      "stateMutability": "pure",
      "type": "function"
    }
  ],
  "bytecode": "0x60806040526d04ee2d6d415b85acef810000000060005534801561002257600080fd5b506101a6806100326000396000f3fe608060405234801561001057600080fd5b50600436106100365760003560e01c806319cae4621461003b578063e43e322c14610057575b600080fd5b61004460005481565b6040519081526020015b60405180910390f35b61006a610065366004610106565b610083565b6040516001600160c01b0319909116815260200161004e565b600080600284846040516020016100a4929190918252602082015260400190565b60408051601f19818403018152908290526100be91610128565b602060405180830381855afa1580156100db573d6000803e3d6000fd5b5050506040513d601f19601f820116820180604052508101906100fe9190610157565b949350505050565b6000806040838503121561011957600080fd5b50508035926020909101359150565b6000825160005b81811015610149576020818601810151858301520161012f565b506000920191825250919050565b60006020828403121561016957600080fd5b505191905056fea2646970667358221220137660a7dc0f7323dd41a0dabdd908699dfaae4c0d7091bdedb718c4e01cb64864736f6c63430008180033",
  "linkReferences": {},
  "deployedLinkReferences": {}
}