{
  "_format": "hh-sol-artifact-1",
  "contractName": "ShippingStatus",
  "sourceName": "contracts/ShippingStatusContract.sol",
  "abi": [
    {
      "inputs": [],
      "stateMutability": "nonpayable",
      "type": "constructor"
    },
    {
      "anonymous": false,
      "inputs": [
        {
          "indexed": true,
          "internalType": "address",
          "name": "owner",
          "type": "address"
        },
        {
          "indexed": true,
          "internalType": "address",
          "name": "spender",
          "type": "address"
        },
        {
          "indexed": false,
          "internalType": "uint256",
          "name": "value",
          "type": "uint256"
        }
      ],
      "name": "Approval",
      "type": "event"
    },
    {
      "anonymous": false,
      "inputs": [
        {
          "indexed": true,
          "internalType": "uint256",
          "name": "shipmentId",
          "type": "uint256"
        },
        {
          "indexed": false,
          "internalType": "enum ShippingStatus.Status",
          "name": "status",
          "type": "uint8"
        }
      ],
      "name": "ShipmentUpdated",
      "type": "event"
    },
    {
      "anonymous": false,
      "inputs": [
        {
          "indexed": true,
          "internalType": "address",
          "name": "from",
          "type": "address"
        },
        {
          "indexed": true,
          "internalType": "address",
          "name": "to",
          "type": "address"
        },
        {
          "indexed": false,
          "internalType": "uint256",
          "name": "value",
          "type": "uint256"
        }
      ],
      "name": "Transfer",
      "type": "event"
    },
    {
      "inputs": [
        {
          "internalType": "address",
          "name": "owner",
          "type": "address"
        },
        {
          "internalType": "address",
          "name": "spender",
          "type": "address"
        }
      ],
      "name": "allowance",
      "outputs": [
        {
          "internalType": "uint256",
          "name": "",
          "type": "uint256"
        }
      ],
      "stateMutability": "view",
      "type": "function"
    },
    {
      "inputs": [
        {
          "internalType": "address",
          "name": "spender",
          "type": "address"
        },
        {
          "internalType": "uint256",
          "name": "amount",
          "type": "uint256"
        }
      ],
      "name": "approve",
      "outputs": [
        {
          "internalType": "bool",
          "name": "",
          "type": "bool"
        }
      ],
      "stateMutability": "nonpayable",
      "type": "function"
    },
    {
      "inputs": [
        {
          "internalType": "address",
          "name": "account",
          "type": "address"
        }
      ],
      "name": "balanceOf",
      "outputs": [
        {
          "internalType": "uint256",
          "name": "",
          "type": "uint256"
        }
      ],
      "stateMutability": "view",
      "type": "function"
    },
    {
      "inputs": [
        {
          "internalType": "address",
          "name": "_buyer",
          "type": "address"
        },
        {
          "internalType": "address",
          "name": "_seller",
          "type": "address"
        }
      ],
      "name": "createShipment",
      "outputs": [],
      "stateMutability": "nonpayable",
      "type": "function"
    },
    {
      "inputs": [],
      "name": "decimals",
      "outputs": [
        {
          "internalType": "uint8",
          "name": "",
          "type": "uint8"
        }
      ],
      "stateMutability": "view",
      "type": "function"
    },
    {
      "inputs": [
        {
          "internalType": "address",
          "name": "spender",
          "type": "address"
        },
        {
          "internalType": "uint256",
          "name": "subtractedValue",
          "type": "uint256"
        }
      ],
      "name": "decreaseAllowance",
      "outputs": [
        {
          "internalType": "bool",
          "name": "",
          "type": "bool"
        }
      ],
      "stateMutability": "nonpayable",
      "type": "function"
    },
    {
      "inputs": [],
      "name": "difficulty",
      "outputs": [
        {
          "internalType": "uint256",
          "name": "",
          "type": "uint256"
        }
      ],
      "stateMutability": "view",
      "type": "function"
    },
    {
      "inputs": [
        {
          "internalType": "address",
          "name": "spender",
          "type": "address"
        },
        {
          "internalType": "uint256",
          "name": "addedValue",
          "type": "uint256"
        }
      ],
      "name": "increaseAllowance",
      "outputs": [
        {
          "internalType": "bool",
          "name": "",
          "type": "bool"
        }
      ],
      "stateMutability": "nonpayable",
      "type": "function"
    },
    {
      "inputs": [
        {
          "internalType": "uint256",
          "name": "nonce",
          "type": "uint256"
        },
        {
          "internalType": "bytes32",
          "name": "currentChallenge",
          "type": "bytes32"
        }
      ],
      "name": "mine",
      "outputs": [
        {
          "internalType": "bytes8",
          "name": "",
          "type": "bytes8"
        }
      ],
      "stateMutability": "pure",
      "type": "function"
    },
    {
      "inputs": [],
      "name": "name",
      "outputs": [
        {
          "internalType": "string",
          "name": "",
          "type": "string"
        }
      ],
      "stateMutability": "view",
      "type": "function"
    },
    {
      "inputs": [],
      "name": "shipmentCounter",
      "outputs": [
        {
          "internalType": "uint256",
          "name": "",
          "type": "uint256"
        }
      ],
      "stateMutability": "view",
      "type": "function"
    },
    {
      "inputs": [
        {
          "internalType": "uint256",
          "name": "",
          "type": "uint256"
        }
      ],
      "name": "shipments",
      "outputs": [
        {
          "internalType": "address",
          "name": "buyer",
          "type": "address"
        },
        {
          "internalType": "address",
          "name": "seller",
          "type": "address"
        },
        {
          "internalType": "enum ShippingStatus.Status",
          "name": "status",
          "type": "uint8"
        }
      ],
      "stateMutability": "view",
      "type": "function"
    },
    {
      "inputs": [],
      "name": "symbol",
      "outputs": [
        {
          "internalType": "string",
          "name": "",
          "type": "string"
        }
      ],
      "stateMutability": "view",
      "type": "function"
    },
    {
      "inputs": [],
      "name": "totalSupply",
      "outputs": [
        {
          "internalType": "uint256",
          "name": "",
          "type": "uint256"
        }
      ],
      "stateMutability": "view",
      "type": "function"
    },
    {
      "inputs": [
        {
          "internalType": "address",
          "name": "to",
          "type": "address"
        },
        {
          "internalType": "uint256",
          "name": "amount",
          "type": "uint256"
        }
      ],
      "name": "transfer",
      "outputs": [
        {
          "internalType": "bool",
          "name": "",
          "type": "bool"
        }
      ],
      "stateMutability": "nonpayable",
      "type": "function"
    },
    {
      "inputs": [
        {
          "internalType": "address",
          "name": "from",
          "type": "address"
        },
        {
          "internalType": "address",
          "name": "to",
          "type": "address"
        },
        {
          "internalType": "uint256",
          "name": "amount",
          "type": "uint256"
        }
      ],
      "name": "transferFrom",
      "outputs": [
        {
          "internalType": "bool",
          "name": "",
          "type": "bool"
        }
      ],
      "stateMutability": "nonpayable",
      "type": "function"
    },
    {
      "inputs": [
        {
          "internalType": "uint256",
          "name": "shipmentId",
          "type": "uint256"
        },
        {
          "internalType": "enum ShippingStatus.Status",
          "name": "status",
          "type": "uint8"
        }
      ],
      "name": "updateShipmentStatus",
      "outputs": [],
      "stateMutability": "nonpayable",
      "type": "function"
    }
  ],
  "bytecode": "0x60806040526d04ee2d6d415b85acef81000000006005553480156200002357600080fd5b506040518060400160405280600d81526020016c29b434b83834b733aa37b5b2b760991b8152506040518060400160405280600381526020016214d41560ea1b81525081600390816200007791906200023c565b5060046200008682826200023c565b505050620000c0336200009e620000c660201b60201c565b620000ab90600a6200041d565b620000ba90620f424062000435565b620000cb565b62000465565b601290565b6001600160a01b038216620001265760405162461bcd60e51b815260206004820152601f60248201527f45524332303a206d696e7420746f20746865207a65726f206164647265737300604482015260640160405180910390fd5b80600260008282546200013a91906200044f565b90915550506001600160a01b038216600081815260208181526040808320805486019055518481527fddf252ad1be2c89b69c2b068fc378daa952ba7f163c4a11628f55a4df523b3ef910160405180910390a35050565b505050565b634e487b7160e01b600052604160045260246000fd5b600181811c90821680620001c157607f821691505b602082108103620001e257634e487b7160e01b600052602260045260246000fd5b50919050565b601f82111562000191576000816000526020600020601f850160051c81016020861015620002135750805b601f850160051c820191505b8181101562000234578281556001016200021f565b505050505050565b81516001600160401b0381111562000258576200025862000196565b6200027081620002698454620001ac565b84620001e8565b602080601f831160018114620002a857600084156200028f5750858301515b600019600386901b1c1916600185901b17855562000234565b600085815260208120601f198616915b82811015620002d957888601518255948401946001909101908401620002b8565b5085821015620002f85787850151600019600388901b60f8161c191681555b5050505050600190811b01905550565b634e487b7160e01b600052601160045260246000fd5b600181815b808511156200035f57816000190482111562000343576200034362000308565b808516156200035157918102915b93841c939080029062000323565b509250929050565b600082620003785750600162000417565b81620003875750600062000417565b8160018114620003a05760028114620003ab57620003cb565b600191505062000417565b60ff841115620003bf57620003bf62000308565b50506001821b62000417565b5060208310610133831016604e8410600b8410161715620003f0575081810a62000417565b620003fc83836200031e565b806000190482111562000413576200041362000308565b0290505b92915050565b60006200042e60ff84168362000367565b9392505050565b808202811582820484141762000417576200041762000308565b8082018082111562000417576200041762000308565b610df780620004756000396000f3fe608060405234801561001057600080fd5b506004361061010b5760003560e01c80634647f9da116100a2578063a457c2d711610071578063a457c2d71461023f578063a9059cbb14610252578063ad0f1dd714610265578063dd62ed3e14610278578063e43e322c1461028b57600080fd5b80634647f9da146101f057806370a08231146101f95780637defa9201461022257806395d89b411461023757600080fd5b806323b872dd116100de57806323b872dd1461016c5780632ac08a931461017f578063313ce567146101ce57806339509351146101dd57600080fd5b806306fdde0314610110578063095ea7b31461012e57806318160ddd1461015157806319cae46214610163575b600080fd5b6101186102b7565b6040516101259190610b2c565b60405180910390f35b61014161013c366004610b7b565b610349565b6040519015158152602001610125565b6002545b604051908152602001610125565b61015560055481565b61014161017a366004610ba5565b610363565b6101bf61018d366004610be1565b600660205260009081526040902080546001909101546001600160a01b0391821691811690600160a01b900460ff1683565b60405161012593929190610c32565b60405160128152602001610125565b6101416101eb366004610b7b565b610387565b61015560075481565b610155610207366004610c57565b6001600160a01b031660009081526020819052604090205490565b610235610230366004610c79565b6103a9565b005b610118610508565b61014161024d366004610b7b565b610517565b610141610260366004610b7b565b610592565b610235610273366004610cad565b6105a0565b610155610286366004610cad565b610659565b61029e610299366004610ce0565b610684565b6040516001600160c01b03199091168152602001610125565b6060600380546102c690610d02565b80601f01602080910402602001604051908101604052809291908181526020018280546102f290610d02565b801561033f5780601f106103145761010080835404028352916020019161033f565b820191906000526020600020905b81548152906001019060200180831161032257829003601f168201915b5050505050905090565b600033610357818585610707565b60019150505b92915050565b60003361037185828561082b565b61037c8585856108a5565b506001949350505050565b60003361035781858561039a8383610659565b6103a49190610d52565b610707565b600082815260066020526040902080546001600160a01b03163314806103db575060018101546001600160a01b031633145b61041d5760405162461bcd60e51b815260206004820152600e60248201526d139bdd08185d5d1a1bdc9a5e995960921b60448201526064015b60405180910390fd5b81600281111561042f5761042f610bfa565b6001820154600160a01b900460ff16600281111561044f5761044f610bfa565b106104945760405162461bcd60e51b8152602060048201526015602482015274496e76616c6964207374617475732075706461746560581b6044820152606401610414565b60018101805483919060ff60a01b1916600160a01b8360028111156104bb576104bb610bfa565b02179055506104cb336001610a49565b827f6f5dfb408f535af54942a5bfce84a909fd27d04c8b1ab21c490973840a150b5c836040516104fb9190610d65565b60405180910390a2505050565b6060600480546102c690610d02565b600033816105258286610659565b9050838110156105855760405162461bcd60e51b815260206004820152602560248201527f45524332303a2064656372656173656420616c6c6f77616e63652062656c6f77604482015264207a65726f60d81b6064820152608401610414565b61037c8286868403610707565b6000336103578185856108a5565b600780549060006105b083610d73565b9091555050604080516060810182526001600160a01b0380851682528316602082015290810160009052600754600090815260066020908152604091829020835181546001600160a01b039182166001600160a01b0319918216178355928501516001830180549190921693811684178255938501519193919290916001600160a81b03191617600160a01b83600281111561064e5761064e610bfa565b021790555050505050565b6001600160a01b03918216600090815260016020908152604080832093909416825291909152205490565b600080600284846040516020016106a5929190918252602082015260400190565b60408051601f19818403018152908290526106bf91610d8c565b602060405180830381855afa1580156106dc573d6000803e3d6000fd5b5050506040513d601f19601f820116820180604052508101906106ff9190610da8565b949350505050565b6001600160a01b0383166107695760405162461bcd60e51b8152602060048201526024808201527f45524332303a20617070726f76652066726f6d20746865207a65726f206164646044820152637265737360e01b6064820152608401610414565b6001600160a01b0382166107ca5760405162461bcd60e51b815260206004820152602260248201527f45524332303a20617070726f766520746f20746865207a65726f206164647265604482015261737360f01b6064820152608401610414565b6001600160a01b0383811660008181526001602090815260408083209487168084529482529182902085905590518481527f8c5be1e5ebec7d5bd14f71427d1e84f3dd0314c0f7b2291e5b200ac8c7c3b925910160405180910390a3505050565b60006108378484610659565b9050600019811461089f57818110156108925760405162461bcd60e51b815260206004820152601d60248201527f45524332303a20696e73756666696369656e7420616c6c6f77616e63650000006044820152606401610414565b61089f8484848403610707565b50505050565b6001600160a01b0383166109095760405162461bcd60e51b815260206004820152602560248201527f45524332303a207472616e736665722066726f6d20746865207a65726f206164604482015264647265737360d81b6064820152608401610414565b6001600160a01b03821661096b5760405162461bcd60e51b815260206004820152602360248201527f45524332303a207472616e7366657220746f20746865207a65726f206164647260448201526265737360e81b6064820152608401610414565b6001600160a01b038316600090815260208190526040902054818110156109e35760405162461bcd60e51b815260206004820152602660248201527f45524332303a207472616e7366657220616d6f756e7420657863656564732062604482015265616c616e636560d01b6064820152608401610414565b6001600160a01b03848116600081815260208181526040808320878703905593871680835291849020805487019055925185815290927fddf252ad1be2c89b69c2b068fc378daa952ba7f163c4a11628f55a4df523b3ef910160405180910390a361089f565b6001600160a01b038216610a9f5760405162461bcd60e51b815260206004820152601f60248201527f45524332303a206d696e7420746f20746865207a65726f2061646472657373006044820152606401610414565b8060026000828254610ab19190610d52565b90915550506001600160a01b038216600081815260208181526040808320805486019055518481527fddf252ad1be2c89b69c2b068fc378daa952ba7f163c4a11628f55a4df523b3ef910160405180910390a35050565b60005b83811015610b23578181015183820152602001610b0b565b50506000910152565b6020815260008251806020840152610b4b816040850160208701610b08565b601f01601f19169190910160400192915050565b80356001600160a01b0381168114610b7657600080fd5b919050565b60008060408385031215610b8e57600080fd5b610b9783610b5f565b946020939093013593505050565b600080600060608486031215610bba57600080fd5b610bc384610b5f565b9250610bd160208501610b5f565b9150604084013590509250925092565b600060208284031215610bf357600080fd5b5035919050565b634e487b7160e01b600052602160045260246000fd5b60038110610c2e57634e487b7160e01b600052602160045260246000fd5b9052565b6001600160a01b03848116825283166020820152606081016106ff6040830184610c10565b600060208284031215610c6957600080fd5b610c7282610b5f565b9392505050565b60008060408385031215610c8c57600080fd5b82359150602083013560038110610ca257600080fd5b809150509250929050565b60008060408385031215610cc057600080fd5b610cc983610b5f565b9150610cd760208401610b5f565b90509250929050565b60008060408385031215610cf357600080fd5b50508035926020909101359150565b600181811c90821680610d1657607f821691505b602082108103610d3657634e487b7160e01b600052602260045260246000fd5b50919050565b634e487b7160e01b600052601160045260246000fd5b8082018082111561035d5761035d610d3c565b6020810161035d8284610c10565b600060018201610d8557610d85610d3c565b5060010190565b60008251610d9e818460208701610b08565b9190910192915050565b600060208284031215610dba57600080fd5b505191905056fea264697066735822122033dcd5858cf2f6dda6349eb378cd208e223e4f407a2393ca5abed1c7b27ec68264736f6c63430008180033",
  "linkReferences": {},
  "deployedLinkReferences": {}
}